:04000300020A0000ED
:1000F30075A00112012520B1277F147E0012013C57
:1001030030B1FD7F147E0012013C050BE50B70023C
:10011300050AC39402E50A94004005E4F50AF50BC9
:0201230080FE5C
:03000B0002009A56
:0B009A00C0E0C0D075D000C000C0075F
:1000A500758CFC758A180509E50970020508D39455
:1000B50064E5089400402E750800750900E50B6499
:1000C50001450A700DAFA07801EF08800123D8FD26
:1000D500F5A0E50B450A700DAFA07801EF0880018A
:0500E50003D8FDF5A0A9
:0900EA00D007D000D0D0D0E032E4
:100125005389F0438901C28DD28C758CFC758A1870
:07013500D2A9D2AFC2B9222A
:10013C00EF1FAC0670011E4C600A7D027CEFDCFEEA
:04014C00DDFC80EC6A
:01015000228C
:0300000002000EED
:0C000E00787FE4F6D8FD75810B020055E8
:10001A000200F3E493A3F8E493A34003F68001F209
:10002A0008DFF48029E493A3F85407240CC8C333E7
:10003A00C4540F4420C8834004F456800146F6DFB6
:10004A00E4800B0102040810204080900003E47E43
:10005A00019360BCA3FF543F30E509541FFEE493AB
:10006A00A360010ECF54C025E060A840B8E493A372
:10007A00FAE493A3F8E493A3C8C582C8CAC583CA9D
:10008A00F0A3C8C582C8CAC583CADFE9DEE780BE55
:0100070000F8
:00000001FF
