:10000E00E4F50AE4F50BC2A0AF0A120099120091B2
:10001E00050BE50BC3941440ED050AE50AC3946481
:10002E0040E1750A64E50AD3940040D4E4F50BC2AE
:10003E00A0AF0A120099120091050BE50BC39414A0
:06004E0040ED150A80DF01
:03000B000200549C
:04005400C0E0C0D078
:10005800758CFC758A180509E50970020508D394A2
:0D006800E8E50894034006750800750900DE
:05007500D0D0D0E03204
:08009100D2A0C37464950AFFBC
:07009900AE071FEE70FA2212
:10007A005389F0438901C28DD28C758CFC758A181C
:07008A00D2A9D2AFC2B922D6
:030000000200A05B
:0C00A000787FE4F6D8FD75810B02000E9D
:00000001FF
