:1004DB00323020202D20202D2020205765656B00E9
:1004EB0020203A20203A202020205A4458534455AB
:0104FB000000
:1000ED001205621205A37BFF7A0479DB7D017F0186
:1000FD001204B87BFF7A0479EB7D017F021204B8FC
:10010D00120003120219E511FB7A00750C027D0332
:10011D007F0112051AE512FB7A00750C027D067F30
:10012D000112051AE513FB7A00750C027D097F019A
:10013D0012051AE514FB7A00750C027D017F02127F
:10014D00051AE515FB7A00750C027D047F02120578
:10015D001AE516FB7A00750C027D077F0212051A4F
:10016D00E517FB7A00750C017D107F0112051A7FD2
:08017D002C7E0112054D808B60
:10054D00EF1FAC0670011E4C600A7D027CEFDCFED5
:04055D00DDFC80EC55
:010561002277
:0905850007111708100E04000311
:0505A300C2B5C2B62242
:0603320025F0FDEC3EFC8D
:060338008C088D09AB07E3
:10033E00D2B5E4FD7E007401A805088005C333CE56
:10034E0033CED8F9FFEBF582EF558224FF92B4D26B
:10035E00B6C2B60DBD08DDE4FD7E007401A8050829
:10036E008005C333CE33CED8F9FFE5085EFEE5092E
:10037E005F4E24FF92B4D2B6C2B60DBD08DBC2B535
:01038E00224C
:02038F00A907BC
:10039100E4FDD2B5FB7E007401A803088005C333D8
:1003A100CE33CED8F9FFE9F582EF558224FF92B41E
:1003B100C2B6D2B60BBB08DDE4FBD2B6C2B630B4CE
:1003C1000DA8037401088002C333D8FC42050BBB9E
:0803D10008E8C2B5C2B4AF0593
:0103D9002201
:10000300E4FDFC7F8E120338E51175F00A8475F068
:1000130010A4FFAEF0E51175F00A84EF7F8C120394
:1000230032E51275F00A8475F010A4FFAEF0E51204
:1000330075F00A847C00EF7F88120332E51375F0B4
:100043000A8475F010A4FFAEF0E51375F00A847C02
:1000530000EF25F0FDEC3EFC7F86120338E51475B6
:10006300F00A8475F010A4FFAEF0E51475F00A846D
:100073007C00EF25F0FDEC3EFC7F84120338E51590
:1000830075F00A8475F010A4FFAEF0E51575F00A5B
:10009300847C00EF25F0FDEC3EFC7F82120338E503
:1000A3001675F00A8475F010A4FFAEF0E51675F02E
:1000B3000A847C00EF25F0FDEC3EFC7F80120338C0
:1000C300E51775F00A8475F010A4FFAEF0E5177517
:1000D300F00A847C00EF25F0FDEC3EFC7F8A1203DE
:0A00E300387D807C007F8E02033818
:100219007F8D12038FEFC4540F75F00AA4FEEF54BB
:100229000F2EF5117F8912038FEFC4540F75F00A51
:10023900A4FEEF540F2EF5127F8712038FEFC454DB
:100249000F75F00AA4FEEF540F2EF5137F851203E4
:100259008FEFC4540F75F00AA4FEEF540F2EF51456
:100269007F8312038FEFC4540F75F00AA4FEEF5475
:100279000F2EF5157F8112038FEFC4540F75F00A05
:10028900A4FEEF540F2EF5167F8B12038FEFC45483
:0C0299000F75F00AA4FEEF540F2EF517AD
:0102A5002236
:06057600C2A58F80D2A790
:08057C007F027EEFDEFEDFFCD2
:010584002254
:0A058F00C2A6120576C2A702057C81
:1004FC00CFCDCFCECCCE1201C47C007D0A1201C46C
:04050C00ED2430FFAB
:0A051000D2A6120576C2A702057CF0
:10053700AE07BE0104ED148006BE0209ED243F4458
:0605470080FF12058F2267
:100562007F3812058F7F0C12058F7F0612058F7F51
:040572000102058FEE
:0A059900AC03120537AF0402051091
:0604B8008B088A09890A85
:1004BE00120537E4FDAB08AA09A90A8D82758300DF
:0C04CE00120185FF60061205100D80E988
:0104DA0022FF
:0C0485007F0AEA24FFFDE434FFFC7E0047
:080491008E0D8F0E8C0F8D10F3
:100499007F017E00E4FBEBC39510E50F6480F874DF
:0E04A9008098500AAC0DAD0E1201B20B80E827
:0104B7002222
:04051A008A0A8B0BB3
:10051E00120537AA0CEAD39400400D120485AC0ADA
:08052E00AD0B1204FC1A80ED74
:0105360022A2
:1003DA00120537C3EA64809480400B7F2B12051004
:1003EA008A1D8B1E800E7F2D120510C3E49BF51EFD
:1003FA00E49AF51DAA1CEAD39400400D120485ACB8
:09040A001DAD1E1204FC1A80ED68
:0104130022C6
:040414008A218B228C
:10041800120537AA23EAD3940040297F10120487D3
:10042800AC21AD22CFCDCFCECCCE1201C4EF540F2C
:10043800FEC3940AEE5004243080022437FF1205CC
:04044800101A80D135
:01044C00228D
:04044D008A268B2749
:10045100120537AA28EAD394004028EA24FFFDE4D4
:1004610034FFFC7F027E00120491AC26AD27CFCD74
:10047100CFCECCCE1201C4EF54012430FF120510AF
:030481001A80D20C
:010484002255
:030000000202A653
:0C02A600787FE4F6D8FD7581280202ED97
:10018500BB010CE58229F582E5833AF583E022502F
:1001950006E92582F8E622BBFE06E92582F8E22279
:0D01A500E58229F582E5833AF583E4932293
:1001B200EF8DF0A4A8F0CF8CF0A428CE8DF0A42E61
:0201C200FE221B
:1001C400BC000BBE0029EF8DF084FFADF022E4CC1F
:1001D400F875F008EF2FFFEE33FEEC33FCEE9DECE8
:1001E400984005FCEE9DFE0FD5F0E9E4CEFD22ED2E
:1001F400F8F5F0EE8420D21CFEADF075F008EF2F78
:10020400FFED33FD4007985006D5F0F222C398FD68
:050214000FD5F0EA2205
:1002B2000200EDE493A3F8E493A34003F68001F275
:1002C20008DFF48029E493A3F85407240CC8C3334D
:1002D200C4540F4420C8834004F456800146F6DF1C
:1002E200E4800B0102040810204080900585E47E22
:1002F200019360BCA3FF543F30E509541FFEE49311
:10030200A360010ECF54C025E060A840B8E493A3D7
:10031200FAE493A3F8E493A3C8C582C8CAC583CA02
:10032200F0A3C8C582C8CAC583CADFE9DEE780BEBA
:01058E00006C
:00000001FF
