:10085400323020202D20202D2020205765656B006C
:1008640020203A20203A202020205A44585344552E
:0E087400007765656B0020736574002020001E
:100558001208E01209221200037BFF7A0879547D01
:10056800017F011208827BFF7A0879647D017F028E
:100578001208821202C11206348F24E524B4011431
:10058800E5227005752201800BE522B40106E4F529
:10059800221202C1E5221460150470DA1205C87B24
:1005A800FF7A0879757D0C7F0112088280C81200D5
:1005B8000E7BFF7A08797A7D0C7F0112088280B65B
:1005C80012043FE511FB7A00750C027D037F0112CE
:1005D80008C3E512FB7A00750C027D067F0112083C
:1005E800C3E513FB7A00750C027D097F011208C36D
:1005F800E514FB7A00750C027D017F021208C3E541
:1006080015FB7A00750C027D047F021208C3E516FB
:10061800FB7A00750C027D077F021208C3E517FB01
:0C0628007A00750C017D107F010208C3F0
:10000E00E524B4020B0521E52175F0078485F02166
:10001E00E524640360030200D974112521F806E576
:10002E0011D394634003E4F511E512D3940C40030D
:10003E00751201E51264016023E5126403601DE58B
:10004E001264056017E51264076011E5126408601A
:10005E000BE512640A6005E512B40C09E513D3949E
:10006E001F4040803BE51264046011E51264066097
:10007E000BE51264096005E512B40B09E513D39480
:10008E001E4020801BE512B40219E51154037009BD
:10009E00E513D3941D400C8007E513D3941C400345
:1000AE00751301E514D394174003E4F514E515D345
:1000BE00943B4003E4F515E516D3943B4003E4F579
:1000CE0016E517D394074003751701E52464046001
:1000DE00030201AB74112521F816E511D394644087
:1000EE0003751163E512700375120CE5126401605D
:1000FE0023E5126403601DE51264056017E51264C2
:10010E00076011E5126408600BE512640A6005E5EC
:10011E0012B40C10E513700375131FE513D3941F5F
:10012E0040568051E51264046011E5126406600BBE
:10013E00E51264096005E512B40B10E51370037542
:10014E00131EE513D3941E402F802AE5126402700D
:10015E0027E51154037010E513700375131DE51395
:10016E00D3941D4013800EE513700375131CE51315
:10017E00D3941C4003751301E514D39464400375A6
:10018E001417E515D39464400375153BE516D39407
:10019E0064400375163BE5177003751707E521706C
:1001AE0014E523B4010F7BFF7A08797F7D037F016D
:1001BE00120882800FE511FB7A00750C027D037F19
:1001CE00011208C3E521B40114E523B4010F7BFF2E
:1001DE007A08797F7D067F01120882800FE512FB77
:1001EE007A00750C027D067F011208C3E521B40268
:1001FE0014E523B4010F7BFF7A08797F7D097F0117
:10020E00120882800FE513FB7A00750C027D097FC0
:10021E00011208C3E521B40314E523B4010F7BFFDB
:10022E007A08797F7D017F02120882800FE514FB28
:10023E007A00750C027D017F021208C3E521B40419
:10024E0014E523B4010F7BFF7A08797F7D047F02CA
:10025E00120882800FE515FB7A00750C027D047F73
:10026E00021208C3E521B40514E523B4010F7BFF88
:10027E007A08797F7D077F02120882800FE516FBD0
:10028E007A00750C027D077F021208C3E521B406C1
:10029E0012E523B4010D7BFF7A08797F7D107F0173
:1002AE00020882E517FB7A00750C017D107F0112A2
:0302BE0008C32250
:03000B0002077772
:09077700C0E0C0D075D000C0073D
:10078000758CFC758A180520E5207002051FC3943E
:10079000F4E51F94014012751F00752000E52370D9
:0907A000047F0180027F008F2319
:0707A900D007D0D0D0E032F0
:10090D00EF1FAC0670011E4C600A7D027CEFDCFE11
:04091D00DDFC80EC91
:0109210022B3
:0909450007111708100E0400034D
:05000300C2B5C2B622E7
:0606950025F0FDEC3EFC27
:06069B008C088D09AB077D
:1006A100D2B5E4FD7E007401A805088005C333CEF0
:1006B10033CED8F9FFEBF582EF558224FF92B4D205
:1006C100B6C2B60DBD08DDE4FD7E007401A80508C3
:1006D1008005C333CE33CED8F9FFE5085EFEE509C8
:1006E1005F4E24FF92B4D2B6C2B60DBD08DBC2B5CF
:0106F10022E6
:0206F200A90756
:1006F400E4FDD2B5FB7E007401A803088005C33372
:10070400CE33CED8F9FFE9F582EF558224FF92B4B7
:10071400C2B6D2B60BBB08DDE4FBD2B6C2B630B467
:100724000DA8037401088002C333D8FC42050BBB37
:0807340008E8C2B5C2B4AF052C
:01073C00229A
:1002C100E4FDFC7F8E12069BE51175F00A8475F042
:1002D10010A4FFAEF0E51175F00A84EF7F8C1206D1
:1002E10095E51275F00A8475F010A4FFAEF0E512E1
:1002F10075F00A847C00EF7F88120695E51375F08E
:100301000A8475F010A4FFAEF0E51375F00A847C41
:1003110000EF25F0FDEC3EFC7F8612069BE514758F
:10032100F00A8475F010A4FFAEF0E51475F00A84AC
:100331007C00EF25F0FDEC3EFC7F8412069BE51569
:1003410075F00A8475F010A4FFAEF0E51575F00A9A
:10035100847C00EF25F0FDEC3EFC7F8212069BE5DC
:100361001675F00A8475F010A4FFAEF0E51675F06D
:100371000A847C00EF25F0FDEC3EFC7F8012069B99
:10038100E51775F00A8475F010A4FFAEF0E5177556
:10039100F00A847C00EF25F0FDEC3EFC7F8A12061A
:0A03A1009B7D807C007F8E02069B8E
:10043F007F8D1206F2EFC4540F75F00AA4FEEF542D
:10044F000F2EF5117F891206F2EFC4540F75F00AC3
:10045F00A4FEEF540F2EF5127F871206F2EFC4544D
:10046F000F75F00AA4FEEF540F2EF5137F851206B9
:10047F00F2EFC4540F75F00AA4FEEF540F2EF514CB
:10048F007F831206F2EFC4540F75F00AA4FEEF54E7
:10049F000F2EF5157F811206F2EFC4540F75F00A77
:1004AF00A4FEEF540F2EF5167F8B1206F2EFC454F5
:0C04BF000F75F00AA4FEEF540F2EF51785
:0104CB00220E
:06093600C2A58F80D2A7CC
:08093C007F027EEFDEFEDFFC0E
:010944002290
:0A094F00C2A6120936C2A702093C35
:1008A500CFCDCFCECCCE1203EA7C007D0A1203EA6F
:0408B500ED2430FFFF
:0A08B900D2A6120936C2A702093CBC
:1008F700AE07BE0104ED148006BE0209ED243F4495
:0609070080FF12094F22DF
:100922007F3812094F7F0C12094F7F0612094F7F41
:040932000102094F66
:0A095900AC031208F7AF040208B95E
:060882008B088A09890AB7
:100888001208F7E4FDAB08AA09A90A8D827583004E
:0C0898001203ABFF60061208B90D80E9E6
:0108A4002231
:0C0821007F0AEA24FFFDE434FFFC7E00A7
:08082D008E0D8F0E8C0F8D1053
:100835007F017E00E4FBEBC39510E50F6480F8743F
:0E0845008098500AAC0DAD0E1203D80B80E85F
:010853002282
:0408C3008A0A8B0B07
:1008C7001208F7AA0CEAD39400400D120821AC0ACB
:0808D700AD0B1208A51A80ED1B
:0108DF0022F6
:10073D001208F7C3EA64809480400B7F2B1208B92E
:10074D008A1D8B1E800E7F2D1208B9C3E49BF51EEA
:10075D00E49AF51DAA1CEAD39400400D120821ACB1
:09076D001DAD1E1208A51A80ED55
:010776002260
:0407B0008A278B28E1
:1007B4001208F7AA29EAD3940040297F10120823CB
:1007C400AC27AD28CFCDCFCECCCE1203EAEF540F59
:1007D400FEC3940AEE5004243080022437FF12082A
:0407E400B91A80D1ED
:0107E80022EE
:0407E9008A2C8B2D9E
:1007ED001208F7AA2EEAD394004028EA24FFFDE46C
:1007FD0034FFFC7F027E0012082DAC2CAD2DCFCD29
:10080D00CFCECCCE1203EAEF54012430FF1208B93B
:03081D001A80D26C
:0108200022B5
:1008E0005389F0438901C28DD28C758CFC758A18AE
:0708F000D2A9D2AFC2B92268
:10063400E4F50820B1137F14FE12090D30B1FD7FDB
:10064400147E0012090D75080120B0147F147E0079
:1006540012090D30B0FD7F147E0012090D750802D9
:1006640020B2147F147E0012090D30B2FD7F147E77
:100674000012090D75080320B3147F147E001209BB
:100684000D30B3FD7F147E0012090D750804AF0808
:010694002243
:030000000204CC2B
:0C04CC00787FE4F6D8FD75812E02051340
:1003AB00BB010CE58229F582E5833AF583E0225007
:1003BB0006E92582F8E622BBFE06E92582F8E22251
:0D03CB00E58229F582E5833AF583E493226B
:1003D800EF8DF0A4A8F0CF8CF0A428CE8DF0A42E39
:0203E800FE22F3
:1003EA00BC000BBE0029EF8DF084FFADF022E4CCF7
:1003FA00F875F008EF2FFFEE33FEEC33FCEE9DECC0
:10040A00984005FCEE9DFE0FD5F0E9E4CEFD22ED05
:10041A00F8F5F0EE8420D21CFEADF075F008EF2F4F
:10042A00FFED33FD4007985006D5F0F222C398FD40
:05043A000FD5F0EA22DD
:1004D800020558E493A3F8E493A34003F68001F2DD
:1004E80008DFF48029E493A3F85407240CC8C33325
:1004F800C4540F4420C8834004F456800146F6DFF4
:10050800E4800B0102040810204080900945E47E35
:10051800019360BCA3FF543F30E509541FFEE493E8
:10052800A360010ECF54C025E060A840B8E493A3AF
:10053800FAE493A3F8E493A3C8C582C8CAC583CADA
:10054800F0A3C8C582C8CAC583CADFE9DEE780BE92
:01094E0000A8
:00000001FF
