:1003C600EF1FAC0670011E4C600A7D027CEFDCFE5E
:0403D600DDFC80ECDE
:0103DA002200
:0B044600D288C289D2A8D2AFD2B8225F
:060479001204000204461B
:03000300020006F2
:10000600C0E0C0F0C083C082C0D075D000C000C0C0
:1000160001C002C003C004C005C006C007E508143D
:10002600601714605F24026003020136E4FFFE12CB
:1000360004517F0112047F80451204708E098F0AD5
:10004600E4FFFE120451C3E50A94C8E50994324060
:1000560011D3E50A94B0E5099436500675080202F4
:100066000136C3E50A94FEE50994294011D3E50A51
:1000760094E6E509942D5006750D0102012E7508CA
:10008600010201361204708E098F0AE4FFFE120483
:1000960051C3E50A946CE5099402402CD3E50A9411
:1000A60054E50994065021E50E131313541F24102A
:1000B600F8C000E6FFE50E5407FEF874010880025A
:1000C600C333D8FCF45F8034C3E50A94D6E50994BB
:1000D600064030D3E50A94BEE509940A5025E50E9C
:1000E600131313541F2410F8C000E6FFE50E54073F
:1000F600FEF87401088002C333D8FC4FD000F60521
:100106000E8006750E00750801E50EC3942040208A
:10011600750E00E511F4B5100FE513F4B512098557
:10012600100C85120B750F01E4FF12047F75080091
:10013600D007D006D005D004D003D002D001D0001D
:0B014600D0D0D082D083D0F0D0E032C7
:0D042000E50F6006E4F50F7F01227F00224A
:0D042D00E50D6006E4F50D7F01227F002241
:03048500AF0C2297
:03048800AF0B2295
:06041100C2A58F80D2A7F6
:080417007F027EC7DEFEDFFC60
:01041F0022BA
:0A045C00C2A6120411C2A702041781
:10037500CFCDCFCECCCE1201907C007D0A1201905C
:04038500ED2430FF34
:0A038900D2A6120411C2A702041745
:1003B000AE07BE0104ED148006BE0209ED243F44E1
:0603C00080FF12045C2224
:1003DB007F3812045C7F0C12045C7F0612045C7F76
:0403EB000102045CAB
:0A046600AC031203B0AF04020389D7
:060352008B148A158916C8
:100358001203B0E4FDAB14AA15A9168D82758300AB
:0C036800120151FF60061203890D80E9AC
:010374002266
:0C031F007F0AEA24FFFDE434FFFC7E00AE
:08032B008E198F1A8C1B8D1C2A
:100333007F017E00E4FBEBC3951CE51B6480F8742E
:0E0343008098500AAC19AD1A12017E0B80E8AA
:010351002289
:040393008A168B1724
:100397001203B0AA18EAD39400400D12031FAC163B
:0803A700AD171203751A80ED79
:0103AF00222B
:100274001203B0C3EA64809480400B7F2B1203897D
:100284008A228B23800E7F2D120389C3E49BF523DE
:10029400E49AF522AA21EAD39400400D12031FAC7C
:0902A40022AD231203751A80ED4E
:0102AD00222E
:0402AE008A168B170A
:1002B2001203B0AA18EAD3940040297F1012032136
:1002C200AC16AD17CFCDCFCECCCE120190EF540FDE
:1002D200FEC3940AEE5004243080022437FF120336
:0402E200891A80D124
:0102E60022F5
:0402E7008A268B27B1
:1002EB001203B0AA28EAD394004028EA24FFFDE4C5
:1002FB0034FFFC7F027E0012032BAC26AD27CFCD43
:10030B00CFCECCCE120190EF54012430FF120389D3
:03031B001A80D273
:01031E0022BC
:1003EF004164643A00436F6D3A0053706565643A37
:0103FF0000FD
:1001E5001203DB1204797BFF7A0379EF7D017F012E
:1001F5001203527BFF7A0379F47D0B7F01120352C0
:100205007BFF7A0379F97D017F02120352E529FB11
:100215007A007518037D077F02120393120420EFFD
:10022500700612042DEF60F41204858F2B120488DA
:100235008F2AE52BFB7A007518027D057F011202D6
:10024500AEE52AFB7A007518027D0F7F011202AE1A
:10025500E52AB415021529E52AB409020529E52977
:0F026500FB7A007518037D077F0212039380ADAB
:100400005389F0438901758CFC758A18C28DC28CA2
:0104100022C9
:0B045100AD07AC068C8CAF058F8A2233
:09047000AF8CEFFEAD8AEDFF2216
:06047F00EF24FF928C2225
:0300000002043ABD
:0C043A00787FE4F6D8FD75812B0201E507
:10015100BB010CE58229F582E5833AF583E0225063
:1001610006E92582F8E622BBFE06E92582F8E222AD
:0D017100E58229F582E5833AF583E49322C7
:10017E00EF8DF0A4A8F0CF8CF0A428CE8DF0A42E95
:02018E00FE224F
:10019000BC000BBE0029EF8DF084FFADF022E4CC53
:1001A000F875F008EF2FFFEE33FEEC33FCEE9DEC1C
:1001B000984005FCEE9DFE0FD5F0E9E4CEFD22ED62
:1001C000F8F5F0EE8420D21CFEADF075F008EF2FAC
:1001D000FFED33FD4007985006D5F0F222C398FD9D
:0501E0000FD5F0EA223A
:00000001FF
