:100168001201DBE4F5148514127F0A7E001201F2F5
:100178000514E514C3940A40ED751464E514D3948A
:100188000040E08514127F0A7E001201F2151480E7
:01019800EB7B
:03000B0002019956
:10019900C0E0C0F0C0D0758AA4758CFF0513E513C3
:1001A90075F0648485F013E513C395125004D2A148
:0B01B9008002C2A1D0D0D0F0D0E03214
:1001C4005389F0438901C28DD28C758CFC758A18D1
:0701D400D2A9D2AFC2B9228B
:1001F200EF1FAC0670011E4C600A7D027CEFDCFE34
:04020200DDFC80ECB3
:0102060022D5
:10010700E4F51520B1137F14FE1201F230B1FD7F23
:10011700147E001201F275150120B0147F147E00C1
:100127001201F230B0FD7F147E001201F275150244
:1001370020B2147F147E001201F230B2FD7F147ECC
:10014700001201F275150320B3147F147E0012010B
:10015700F230B3FD7F147E001201F2751504AF155E
:010167002275
:0C0207000A083F065B4F666D7D077F6FA5
:10009A00EF14B4080050549000AF75F003A4C58360
:1000AA0025F0C583730200C70200CB0200CF02000D
:1000BA00D30200D70200DF0200E70200EFD2A480D9
:1000CA000ED2A48012D2A48016D2A4801AC2A4D2BC
:1000DA00A3D2A28016C2A4D2A3C2A2800EC2A4C274
:1000EA00A3D2A28006C2A4C2A3C2A274082DF8E6B3
:0D00FA00F5807F017E001201F2E4F5802206
:1001DB005389F0438901758AA4758CFFC28DD28C2B
:0701EB00D2A9D2AFC2B92274
:0300000002000EED
:0C000E00787FE4F6D8FD758115020055DE
:10001A00020168E493A3F8E493A34003F68001F293
:10002A0008DFF48029E493A3F85407240CC8C333E7
:10003A00C4540F4420C8834004F456800146F6DFB6
:10004A00E4800B0102040810204080900207E47E3D
:10005A00019360BCA3FF543F30E509541FFEE493AB
:10006A00A360010ECF54C025E060A840B8E493A372
:10007A00FAE493A3F8E493A3C8C582C8CAC583CA9D
:10008A00F0A3C8C582C8CAC583CADFE9DEE780BE55
:0102130000EA
:00000001FF
