:10080B00323020202D20202D2020205765656B00B5
:10081B0020203A20203A202020205A445853445577
:0E082B00007765656B00207365740020200067
:09092800070D1708100E0400036E
:10053C001208C41208F11200037BFF7A08790B7DB4
:10054C00017F011208417BFF7A08791B7D017F0234
:10055C001208411202A51206B48F14E514B401144A
:10056C00E50B7005750B01800BE50BB40106E4F58A
:10057C000B1202A5E50B1460150470DA1205AC7BA6
:10058C00FF7A08792C7D0C7F0112084180C812007B
:10059C000E7BFF7A0879317D0C7F0112084180B601
:1005AC00120423120864E50EFB7A007519027D060D
:1005BC007F01120870E50FFB7A007519027D097F27
:1005CC0001120870E510FB7A007519027D017F029B
:1005DC00120870E511FB7A007519027D047F021276
:1005EC000870E512FB7A007519027D077F0212086C
:1005FC0070E513FB7A007519017D107F01020870FC
:10000E00E514B4020B050AE50A75F0078485F00ABB
:10001E00E514640360030200D9740D250AF806E5A1
:10002E000DD394634003E4F50DE50ED3940C400319
:10003E00750E01E50E64016023E50E6403601DE597
:10004E000E64056017E50E64076011E50E64086026
:10005E000BE50E640A6005E50EB40C09E50FD394AA
:10006E001F4040803BE50E64046011E50E6406609F
:10007E000BE50E64096005E50EB40B09E50FD3948C
:10008E001E4020801BE50EB40219E50D54037009C5
:10009E00E50FD3941D400C8007E50FD3941C40034D
:1000AE00750F01E510D394174003E4F510E511D355
:1000BE00943B4003E4F511E512D3943B4003E4F581
:1000CE0012E513D394074003751301E5146404601D
:1000DE00030201AB740D250AF816E50DD3946440A6
:1000EE0003750D63E50E7003750E0CE50E6401606D
:1000FE0023E50E6403601DE50E64056017E50E64CE
:10010E00076011E50E6408600BE50E640A6005E5F4
:10011E000EB40C10E50F7003750F1FE50FD3941F6F
:10012E0040568051E50E64046011E50E6406600BC6
:10013E00E50E64096005E50EB40B10E50F7003754E
:10014E000F1EE50FD3941E402F802AE50E64027019
:10015E0027E50D54037010E50F7003750F1DE50FA5
:10016E00D3941D4013800EE50F7003750F1CE50F21
:10017E00D3941C4003750F01E510D39464400375AE
:10018E001017E511D39464400375113BE512D39417
:10019E0064400375123BE5137003751307E50A708F
:1001AE000CE50CB401077D031208398003120864B4
:1001BE00E50AB4010CE50CB401077D06120839807E
:1001CE000FE50EFB7A007519027D067F011208708D
:1001DE00E50AB40214E50CB4010F7BFF7A087936F8
:1001EE007D097F01120841800FE50FFB7A0075191A
:1001FE00027D097F01120870E50AB40314E50CB400
:10020E00010F7BFF7A0879367D017F02120841804B
:10021E000FE510FB7A007519027D017F021208703E
:10022E00E50AB40414E50CB4010F7BFF7A087936A5
:10023E007D047F02120841800FE511FB7A007519CB
:10024E00027D047F02120870E50AB40514E50CB4B1
:10025E00010F7BFF7A0879367D077F0212084180F5
:10026E000FE512FB7A007519027D077F02120870E6
:10027E00E50AB40612E50CB4010D7BFF7A08793657
:10028E007D107F01020841E513FB7A007519017D8F
:07029E00107F01120870221D
:03000B0002072EBB
:09072E00C0E0C0D075D000C00786
:10073700758CFC758A180509E50970020508C394CC
:10074700F4E50894014012750800750900E50C707E
:09075700047F0180027F008F0C79
:07076000D007D0D0D0E03239
:0408AB007F147E0038
:1008AF00EF1FAC0670011E4C600A7D027CEFDCFE70
:0408BF00DDFC80ECF0
:0108C3002212
:05000300C2B5C2B622E7
:06060C0025F0FDEC3EFCB0
:060612008C158D16AB07EC
:10061800D2B5E4FD7E007401A805088005C333CE79
:1006280033CED8F9FFEBF582EF558224FF92B4D28E
:10063800B6C2B60DBD08DDE4FD7E007401A805084C
:100648008005C333CE33CED8F9FFE5155EFEE51637
:100658005F4E24FF92B4D2B6C2B60DBD08DBC2B558
:01066800226F
:02066900A907DF
:10066B00E4FDD2B5FB7E007401A803088005C333FB
:10067B00CE33CED8F9FFE9F582EF558224FF92B441
:10068B00C2B6D2B60BBB08DDE4FBD2B6C2B630B4F1
:10069B000DA8037401088002C333D8FC42050BBBC1
:0806AB0008E8C2B5C2B4AF05B6
:0106B3002224
:1002A500E4FDFC7F8E120612E50D75F00A8475F0EB
:1002B50010A4FFAEF0E50D75F00A84EF7F8C1206F1
:1002C5000CE50E75F00A8475F010A4FFAEF0E50E8E
:1002D50075F00A847C00EF7F8812060CE50F75F037
:1002E5000A8475F010A4FFAEF0E50F75F00A847C62
:1002F50000EF25F0FDEC3EFC7F86120612E5107539
:10030500F00A8475F010A4FFAEF0E51075F00A84CC
:100315007C00EF25F0FDEC3EFC7F84120612E51112
:1003250075F00A8475F010A4FFAEF0E51175F00ABA
:10033500847C00EF25F0FDEC3EFC7F82120612E581
:100345001275F00A8475F010A4FFAEF0E51275F091
:100355000A847C00EF25F0FDEC3EFC7F801206123E
:10036500E51375F00A8475F010A4FFAEF0E513757A
:10037500F00A847C00EF25F0FDEC3EFC7F8A120636
:0A038500127D807C007F8E020612BC
:100423007F8D120669EFC4540F75F00AA4FEEF54D2
:100433000F2EF50D7F89120669EFC4540F75F00A6C
:10044300A4FEEF540F2EF50E7F87120669EFC454F6
:100453000F75F00AA4FEEF540F2EF50F7F851206D9
:1004630069EFC4540F75F00AA4FEEF540F2EF51074
:100473007F83120669EFC4540F75F00AA4FEEF548C
:100483000F2EF5117F81120669EFC4540F75F00A20
:10049300A4FEEF540F2EF5127F8B120669EFC4549E
:0C04A3000F75F00AA4FEEF540F2EF513A5
:0104AF00222A
:1008C4005389F0438901C28DD28C758CFC758A18CA
:0708D400D2A9D2AFC2B92284
:1006B400E4FB20B10E7F14FE1208AF30B1FD120826
:1006C400AB7B0120B00B1208AB30B0FD1208AB7B42
:1006D4000220B20B1208AB30B2FD1208AB7B032030
:0F06E400B30B1208AB30B3FD1208AB7B04AF03AE
:0106F30022E4
:06090500C2A58F80D2A7FD
:08090B007F027EEFDEFEDFFC3F
:0109130022C1
:0A091400C2A6120905C2A702090BD2
:10088D00CFCDCFCECCCE1203CE7C007D0A1203CEBF
:04089D00ED2430FF17
:0A08A100D2A6120905C2A702090B36
:1008DB00AE07BE0104ED148006BE0209ED243F44B1
:0608EB0080FF1209142237
:1008F1007F381209147F0C1209147F061209147F24
:0409010001020914D2
:0A091E00AC031208DBAF040208A1CD
:080839007BFF7A0879367F018C
:060841008B158A168917D1
:100847001208DBE4FDAB15AA16A9178D8275830084
:0C08570012038FFF60061208A10D80E95B
:010863002272
:0C07D8007F0AEA24FFFDE434FFFC7E00F1
:0807E4008E1A8F1B8C1C8D1D69
:1007EC007F017E00E4FBEBC3951DE51C6480F8746F
:0E07FC008098500AAC1AAD1B1203BC0B80E8AB
:01080A0022CB
:0C086400E50DFB7A007519027D037F0191
:040870008A178B1840
:100874001208DBAA19EAD39400400D1207D8AC176A
:08088400AD1812088D1A80ED79
:01088C002249
:1006F4001208DBC3EA64809480400B7F2B1208A1AC
:100704008A238B24800E7F2D1208A1C3E49BF52439
:10071400E49AF523AA22EAD39400400D1207D8AC38
:0907240023AD2412088D1A80EDAA
:01072D0022A9
:040767008A278B282A
:10076B001208DBAA29EAD3940040297F101207DA7A
:10077B00AC27AD28CFCDCFCECCCE1203CEEF540FBE
:10078B00FEC3940AEE5004243080022437FF120873
:04079B00A11A80D14E
:01079F002237
:0407A0008A2C8B2DE7
:1007A4001208DBAA2EEAD394004028EA24FFFDE4D1
:1007B40034FFFC7F027E001207E4AC2CAD2DCFCDBC
:1007C400CFCECCCE1203CEEF54012430FF1208A1B9
:0307D4001A80D2B6
:0107D70022FF
:030000000204B047
:0C04B000787FE4F6D8FD75812E0204F779
:10038F00BB010CE58229F582E5833AF583E0225023
:10039F0006E92582F8E622BBFE06E92582F8E2226D
:0D03AF00E58229F582E5833AF583E4932287
:1003BC00EF8DF0A4A8F0CF8CF0A428CE8DF0A42E55
:0203CC00FE220F
:1003CE00BC000BBE0029EF8DF084FFADF022E4CC13
:1003DE00F875F008EF2FFFEE33FEEC33FCEE9DECDC
:1003EE00984005FCEE9DFE0FD5F0E9E4CEFD22ED22
:1003FE00F8F5F0EE8420D21CFEADF075F008EF2F6C
:10040E00FFED33FD4007985006D5F0F222C398FD5C
:05041E000FD5F0EA22F9
:1004BC0002053CE493A3F8E493A34003F68001F215
:1004CC0008DFF48029E493A3F85407240CC8C33341
:1004DC00C4540F4420C8834004F456800146F6DF10
:1004EC00E4800B0102040810204080900928E47E6F
:1004FC00019360BCA3FF543F30E509541FFEE49305
:10050C00A360010ECF54C025E060A840B8E493A3CB
:10051C00FAE493A3F8E493A3C8C582C8CAC583CAF6
:10052C00F0A3C8C582C8CAC583CADFE9DEE780BEAE
:0109310000C5
:00000001FF
