:06000300010900010800E4
:0400E9007FE87E032B
:1000ED00EF1FAC0670011E4C600A7D027CC7DCFE62
:0400FD00DDFC80ECBA
:0101010022DB
:10010200758901758A33758CFED2AFD2A9D28CD291
:04011200B9C28D22BF
:1000C6001201027509011200E97509021200E975AB
:1000D60009031200E97509041200E9750905120001
:0300E600E980E0CE
:03000B0002009A56
:10009A00C0E0C0D0758A33758CFE0508E508C394A4
:1000AA0028500FE508C395095004D2908009C290E0
:0C00BA008005750800D290D0D0D0E03254
:0300000002000EED
:0C000E00787FE4F6D8FD758109020055EA
:10001A000200C6E493A3F8E493A34003F68001F236
:10002A0008DFF48029E493A3F85407240CC8C333E7
:10003A00C4540F4420C8834004F456800146F6DFB6
:10004A00E4800B0102040810204080900003E47E43
:10005A00019360BCA3FF543F30E509541FFEE493AB
:10006A00A360010ECF54C025E060A840B8E493A372
:10007A00FAE493A3F8E493A3C8C582C8CAC583CA9D
:10008A00F0A3C8C582C8CAC583CADFE9DEE780BE55
:0100090000F6
:00000001FF
