:03000B000201806F
:10018000C0E0C0F0C0D0758CFE758A330525E5252A
:10019000D394015004D2A38002C2A3E52575F028B0
:0B01A0008485F025D0D0D0F0D0E032F4
:100209005389F0438901C28DD28C758CFE758A336E
:07021900D2A9D2AFC2B92245
:0500030012020980FE5D
:06024A00C2A58F80D2A7BF
:080250007F027EEFDEFEDFFC01
:010258002283
:0A026500C2A612024AC2A70202500C
:1001CE00CFCDCFCECCCE12004D7C007D0A12004D8D
:0401DE00ED2430FFDD
:0A01E200D2A612024AC2A702025080
:10022000AE07BE0104ED148006BE0209ED243F4472
:0602300080FF12026522AE
:100236007F381202657F0C1202657F061202657F07
:04024600010202654A
:0A026F00AC03120220AF040201E20A
:0601AB008B228A23892447
:1001B100120220E4FDAB22AA23A9248D82758300BB
:0C01C10012000EFF60061201E20D80E942
:0101CD00220F
:0C014D007F0AEA24FFFDE434FFFC7E0082
:080159008E1E8F1F8C208D21EA
:100161007F017E00E4FBEBC39521E5206480F874F8
:0E0171008098500AAC1EAD1F12003B0B80E8B8
:01017F00225D
:0401EC008A118B12D7
:1001F000120220AA13EAD39400400D12014DAC1153
:08020000AD121201CE1A80EDCF
:0102080022D3
:1000A200120220C3EA64809480400B7F2B1201E28B
:1000B2008A0D8B0E800E7F2D1201E2C3E49BF50E9A
:1000C200E49AF50DAA0CEAD39400400D12014DAC4E
:0900D2000DAD0E1201CE1A80EDF5
:0100DB002202
:0400DC008A168B17DE
:1000E000120220AA18EAD3940040297F1012014F6F
:1000F000AC16AD17CFCDCFCECCCE12004DEF540FF6
:10010000FEC3940AEE5004243080022437FF12010B
:04011000E21A80D19E
:0101140022C8
:040115008A1B8B1C9A
:10011900120220AA1DEAD394004028EA24FFFDE434
:1001290034FFFC7F027E00120159AC1BAD1CCFCD00
:10013900CFCECCCE12004DEF54012430FF1201E294
:030149001A80D247
:01014C002290
:03000000020259A0
:0C025900787FE4F6D8FD758125020003D3
:10000E00BB010CE58229F582E5833AF583E02250A7
:10001E0006E92582F8E622BBFE06E92582F8E222F1
:0D002E00E58229F582E5833AF583E493220B
:10003B00EF8DF0A4A8F0CF8CF0A428CE8DF0A42ED9
:02004B00FE2293
:10004D00BC000BBE0029EF8DF084FFADF022E4CC97
:10005D00F875F008EF2FFFEE33FEEC33FCEE9DEC60
:10006D00984005FCEE9DFE0FD5F0E9E4CEFD22EDA6
:10007D00F8F5F0EE8420D21CFEADF075F008EF2FF0
:10008D00FFED33FD4007985006D5F0F222C398FDE1
:05009D000FD5F0EA227E
:00000001FF
