:0402A2005A64780022
:1000970012024B7B417D017F011202987BFF7A029E
:1000A70079A27D037F011201E5750C047B1F7A029B
:1000B7007D077F0112020B750C047BE77AE37D0C49
:1000C7007F01120178750C027BDC7A007D017F02CB
:1000D7001200FC750C087B6A7A007D047F0212010E
:1000E7003C7BDF7D0D7F021202987B437D0E7F02F2
:0500F70012029880FEDA
:0A028E00C2A6120272C2A702027893
:10022D00CFCDCFCECCCE1200427C007D0A12004243
:04023D00ED2430FF7D
:0A024100D2A6120272C2A7020278D0
:06027200C2A58F80D2A797
:09027800007F027EC7DEFEDFFC00
:01028100225A
:10024B007F3812028E7F0C12028E7F0612028E7F77
:04025B000102028E0C
:10025F008D10E510BF0103148002243F4480FF126C
:03026F00028E22DA
:0A0298008B0812025FAF080202415A
:0601E5008B088A09890A5B
:1001EB0012025FE4F50BAB08AA09A90A850B82750D
:0F01FB008300120003FF6007120241050B80E72B
:01020A0022D1
:04020B008A0A8B0BC5
:10020F0012025F850C0DE50DD394004010E50D1221
:0D021F0001B3AC0AAD0B12022D150D80E9E4
:01022C0022AF
:0B01B3007F0A24FFFDE434FFFC7E0007
:0801BE008E108F118C128D13BD
:1001C6007F017E00E4FBEBC39513E5126480F874AF
:0E01D6008098500AAC10AD111200300B80E87A
:0101E40022F8
:040178008A0A8B0B59
:10017C0012025FC3E50A6480948050107F2D120236
:10018C0041C3E4950BF50FE4950AF50E850C0DE5CE
:10019C000DD394004010E50D1201B3AC0EAD0F124F
:0601AC00022D150D80E993
:0101B200222A
:0400FC008A0A8B0BD6
:1001000012025F850C0DE50DD39400402EE50D7FA6
:10011000101201B5AC0AAD0BCFCDCFCECCCE1200B4
:1001200042EF540FF50ED39409E50E4004243780B6
:0B013000022430FF120241150D80CBAD
:01013B0022A1
:04013C008A0A8B0B95
:1001400012025F850C0DE50DD39400402AE50D24C5
:10015000FFFDE434FFFC7F027E001201BEAC0AAD5D
:100160000BCFCDCFCECCCE120042EF54012430FFC6
:07017000120241150D80CFC2
:010177002265
:0300000002028277
:0C028200787FE4F6D8FD75811302009728
:10000300BB010CE58229F582E5833AF583E02250B2
:1000130006E92582F8E622BBFE06E92582F8E222FC
:0D002300E58229F582E5833AF583E4932216
:10003000EF8DF0A4A8F0CF8CF0A428CE8DF0A42EE4
:02004000FE229E
:10004200BC000BBE0029EF8DF084FFADF022E4CCA2
:10005200F875F008EF2FFFEE33FEEC33FCEE9DEC6B
:10006200984005FCEE9DFE0FD5F0E9E4CEFD22EDB1
:10007200F8F5F0EE8420D21CFEADF075F008EF2FFB
:10008200FFED33FD4007985006D5F0F222C398FDEC
:050092000FD5F0EA2289
:00000001FF
