:1000750046616E20202020202020202058584C57F3
:10008500006F70656E005A68656E67205A68756105
:100095006E0073746F700046616E205A6875616EEC
:0100A500005A
:1000030012012CC295C2947A0079757D011200D336
:1000130020B1231200FA30B1FD1200FA7A0079867A
:100023007D051200D3D295C2947BFF7A00798B7D34
:10003300017F021200D720B01A1200FA30B0FD126D
:1000430000FA7BFF7A0079977D057F011200D7D2F2
:1000530095D29420B2BA1200FA30B2FD1200FAB26D
:1000630095B2947BFF7A00799C7D017F021200D7C1
:02007300809E6D
:0400FA007F147E00F1
:1000FE00EF1FAC0670011E4C600D0000007D0B7CE6
:07010E00BEDCFEDDFC80E910
:0101150022C7
:06014000C2A58F80D2A7CA
:080146007F027EEFDEFEDFFC0C
:01014E00228E
:0A015B00C2A6120140C2A70201462D
:0A016500D2A6120140C2A702014613
:10011600AE07BE0104ED148006BE0209ED243F447D
:0601260080FF12015B22C4
:10012C007F3812015B7F0C12015B7F0612015B7F33
:04013C000102015B60
:0400D3007BFF7F012F
:0600D7008B088A09890A6A
:1000DD00120116E4FDAB08AA09A90A8D82758300E9
:0C00ED001200A6FF60061201650D80E9FC
:0100F90022E4
:0300000002014FAB
:0C014F00787FE4F6D8FD75810A020003F9
:1000A600BB010CE58229F582E5833AF583E022500F
:1000B60006E92582F8E622BBFE06E92582F8E22259
:0D00C600E58229F582E5833AF583E4932273
:00000001FF
