:070337005A445853445500DD
:1000EE001202F412033EE4FDFC7F8E1200977D0196
:1000FE007C007F801200977BFF7A0379377D017F2A
:10010E000112026B7F811201428F16E516C4540F45
:10011E0075F00AA4FFE516540F7C002FFBEC35F0AA
:10012E00FA750C047D017F021202AC7F647E001210
:04013E0002DF80D08C
:05033E00C2B5C2B622A9
:060097008C088D09AB0787
:10009D00D2B5E4FD7E007401A805088005C333CEFA
:1000AD0033CED8F9FFEBF582EF558224FF92B4D20F
:1000BD00B6C2B60DBD08DDE4FD7E007401A80508CD
:1000CD008005C333CE33CED8F9FFE5085EFEE509D2
:1000DD005F4E24FF92B4D2B6C2B60DBD08DBC2B5D9
:0100ED0022F0
:02014200A9070B
:10014400E4FDD2B5FB7E007401A803088005C33327
:10015400CE33CED8F9FFE9F582EF558224FF92B46D
:10016400C2B6D2B60BBB08DDE4FBD2B6C2B630B41D
:100174000DA8037401088002C333D8FC42050BBBED
:0801840008E8C2B5C2B4AF05E2
:01018C002250
:06030800C2A58F80D2A700
:08030E007F027EEFDEFEDFFC42
:0103160022C4
:0A032300C2A6120308C2A702030ECF
:10028E00CFCDCFCECCCE1200427C007D0A120042E2
:04029E00ED2430FF1C
:0A02A200D2A6120308C2A702030E41
:1002C900AE07BE0104ED148006BE0209ED243F44C9
:0602D90080FF1203232246
:1002F4007F381203237F0C1203237F061203237F0C
:0403040001020323CC
:0A032D00AC031202C9AF040202A2E1
:06026B008B088A09890AD4
:100271001202C9E4FDAB08AA09A90A8D827583009F
:0C028100120003FF60061202A20D80E9CB
:01028D00224E
:0C0238007F0AEA24FFFDE434FFFC7E0096
:080244008E0D8F0E8C0F8D1042
:10024C007F017E00E4FBEBC39510E50F6480F8742E
:0E025C008098500AAC0DAD0E1200300B80E8F9
:01026A002271
:0402AC008A0A8B0B24
:1002B0001202C9AA0CEAD39400400D120238AC0A0B
:0802C000AD0B12028E1A80ED55
:0102C8002213
:10018D001202C9C3EA64809480400B7F2B1202A235
:10019D008A1D8B1E800E7F2D1202A2C3E49BF51EBD
:1001AD00E49AF51DAA1CEAD39400400D120238AC56
:0901BD001DAD1E12028E1A80ED28
:0101C6002216
:0401C7008A218B22DC
:1001CB001202C9AA23EAD3940040297F1012023AE3
:1001DB00AC21AD22CFCDCFCECCCE120042EF540FFF
:1001EB00FEC3940AEE5004243080022437FF12021F
:0401FB00A21A80D1F3
:0101FF0022DD
:040200008A268B2798
:100204001202C9AA28EAD394004028EA24FFFDE494
:1002140034FFFC7F027E00120244AC26AD27CFCD12
:10022400CFCECCCE120042EF54012430FF1202A2F2
:030234001A80D25B
:0102370022A4
:1002DF00EF1FAC0670011E4C600A7D027CEFDCFE46
:0402EF00DDFC80ECC6
:0102F30022E8
:03000000020317E1
:0C031700787FE4F6D8FD7581280200EE26
:10000300BB010CE58229F582E5833AF583E02250B2
:1000130006E92582F8E622BBFE06E92582F8E222FC
:0D002300E58229F582E5833AF583E4932216
:10003000EF8DF0A4A8F0CF8CF0A428CE8DF0A42EE4
:02004000FE229E
:10004200BC000BBE0029EF8DF084FFADF022E4CCA2
:10005200F875F008EF2FFFEE33FEEC33FCEE9DEC6B
:10006200984005FCEE9DFE0FD5F0E9E4CEFD22EDB1
:10007200F8F5F0EE8420D21CFEADF075F008EF2FFB
:10008200FFED33FD4007985006D5F0F222C398FDEC
:050092000FD5F0EA2289
:00000001FF
