:070325005A445853445500EF
:100139001202E212032CE4FDFC7F8E1200977D016E
:100149007C007F801200977BFF7A0379257D017FF0
:10015900011202597F811200EE8F16EFFB7A0075AA
:100169000C047D017F0212029A7F647E001202CD87
:0201790080E222
:05032C00C2B5C2B622BB
:060097008C088D09AB0787
:10009D00D2B5E4FD7E007401A805088005C333CEFA
:1000AD0033CED8F9FFEBF582EF558224FF92B4D20F
:1000BD00B6C2B60DBD08DDE4FD7E007401A80508CD
:1000CD008005C333CE33CED8F9FFE5085EFEE509D2
:1000DD005F4E24FF92B4D2B6C2B60DBD08DBC2B5D9
:0100ED0022F0
:0200EE00A90760
:1000F000E4FDD2B5FB7E007401A803088005C3337C
:10010000CE33CED8F9FFE9F582EF558224FF92B4C1
:10011000C2B6D2B60BBB08DDE4FBD2B6C2B630B471
:100120000DA8037401088002C333D8FC42050BBB41
:0801300008E8C2B5C2B4AF0536
:0101380022A4
:0602F600C2A58F80D2A713
:0802FC007F027EEFDEFEDFFC55
:0103040022D6
:0A031100C2A61202F6C2A70202FC07
:10027C00CFCDCFCECCCE1200427C007D0A120042F4
:04028C00ED2430FF2E
:0A029000D2A61202F6C2A70202FC79
:1002B700AE07BE0104ED148006BE0209ED243F44DB
:0602C70080FF120311226A
:1002E2007F381203117F0C1203117F061203117F54
:0402F20001020311F1
:0A031B00AC031202B7AF0402029017
:060259008B088A09890AE6
:10025F001202B7E4FDAB08AA09A90A8D82758300C3
:0C026F00120003FF60061202900D80E9EF
:01027B002260
:0C0226007F0AEA24FFFDE434FFFC7E00A8
:080232008E0D8F0E8C0F8D1054
:10023A007F017E00E4FBEBC39510E50F6480F87440
:0E024A008098500AAC0DAD0E1200300B80E80B
:010258002283
:04029A008A0A8B0B36
:10029E001202B7AA0CEAD39400400D120226AC0A41
:0802AE00AD0B12027C1A80ED79
:0102B6002225
:10017B001202B7C3EA64809480400B7F2B1202906B
:10018B008A1D8B1E800E7F2D120290C3E49BF51EE1
:10019B00E49AF51DAA1CEAD39400400D120226AC7A
:0901AB001DAD1E12027C1A80ED4C
:0101B4002228
:0401B5008A218B22EE
:1001B9001202B7AA23EAD3940040297F1012022819
:1001C900AC21AD22CFCDCFCECCCE120042EF540F11
:1001D900FEC3940AEE5004243080022437FF120231
:0401E900901A80D117
:0101ED0022EF
:0401EE008A268B27AB
:1001F2001202B7AA28EAD394004028EA24FFFDE4B9
:1002020034FFFC7F027E00120232AC26AD27CFCD36
:10021200CFCECCCE120042EF54012430FF12029016
:030222001A80D26D
:0102250022B6
:1002CD00EF1FAC0670011E4C600A7D027CEFDCFE58
:0402DD00DDFC80ECD8
:0102E10022FA
:03000000020305F3
:0C030500787FE4F6D8FD758128020139EC
:10000300BB010CE58229F582E5833AF583E02250B2
:1000130006E92582F8E622BBFE06E92582F8E222FC
:0D002300E58229F582E5833AF583E4932216
:10003000EF8DF0A4A8F0CF8CF0A428CE8DF0A42EE4
:02004000FE229E
:10004200BC000BBE0029EF8DF084FFADF022E4CCA2
:10005200F875F008EF2FFFEE33FEEC33FCEE9DEC6B
:10006200984005FCEE9DFE0FD5F0E9E4CEFD22EDB1
:10007200F8F5F0EE8420D21CFEADF075F008EF2FFB
:10008200FFED33FD4007985006D5F0F222C398FDEC
:050092000FD5F0EA2289
:00000001FF
