:10031F005A445853445500577269746520446F6EA0
:10032F006500202020202020202020200052656101
:07033F006420446F6E6500AD
:100003001204117BFF7A03791F7D0B7F0212036AAF
:10001300750C06AB1EAA1D7D017F021203C91201D6
:10002300878F1FE51FB40115051EE51E7002051D10
:10003300750C05FBAA1D7D017F021203C9E51FB4E0
:100043000216E51E151E7002151D750C05AB1EAAC2
:100053001D7D017F021203C9E51F6403704AE51E7B
:10006300151E7002151D7C00AD1EE4FF1203467FB2
:10007300057E001203FCE51DFD7C007F0112034693
:100083007F057E001203FC7BFF7A0379267D017FC7
:100093000212036A7FD07E071203FC7BFF7A037987
:1000A300317D017F0212036AE51F640460030200CD
:1000B30021FF1202C6751D008F1E7F011202C6EFBB
:1000C300FEEE421D7BFF7A03793C7D017F01120323
:1000D3006A750C05AB1EAA1D7D0A7F011203C97543
:1000E3000C05AB1EAA1D7D017F021203C90200216C
:1003FC00EF1FAC0670011E4C600A7D027CEFDCFE28
:04040C00DDFC80ECA7
:0104100022C9
:10018700E4F50820B1137F14FE1203FC30B1FD7FA4
:10019700147E001203FC75080120B0147F147E0042
:1001A7001203FC30B0FD7F147E001203FC750802B9
:1001B70020B2147F147E001203FC30B2FD7F147E40
:1001C700001203FC75080320B3147F147E0012038A
:1001D700FC30B3FD7F147E001203FC750804AF08E2
:0101E70022F5
:06042500C2A58F80D2A7E2
:08042B007F027EEFDEFEDFFC24
:0104330022A6
:0A044D00C2A6120425C2A702042B68
:10038D00CFCDCFCECCCE1201327C007D0A12013200
:04039D00ED2430FF1C
:0A03A100D2A6120425C2A702042B05
:1003E600AE07BE0104ED148006BE0209ED243F44AB
:0603F60080FF12044D22FD
:100411007F3812044D7F0C12044D7F0612044D7F6C
:040421000102044D83
:0A045700AC031203E6AF040203A198
:06036A008B088A09890AD4
:100370001203E6E4FDAB08AA09A90A8D8275830081
:0C0380001200F3FF60061203A10D80E9DB
:01038C00224E
:0C0293007F0AEA24FFFDE434FFFC7E003B
:08029F008E0D8F0E8C0F8D10E7
:1002A7007F017E00E4FBEBC39510E50F6480F874D3
:0E02B7008098500AAC0DAD0E1201200B80E8AD
:0102C5002216
:0403C9008A0A8B0B06
:1003CD001203E6AA0CEAD39400400D120293AC0A74
:0803DD00AD0B12038D1A80ED37
:0103E50022F5
:1001E8001203E6C3EA64809480400B7F2B1203A1BC
:1001F8008A168B17800E7F2D1203A1C3E49BF51777
:10020800E49AF516AA15EAD39400400D120293ACAD
:0902180016AD1712038D1A80EDDA
:0102210022BA
:040222008A1A8B1B8E
:100226001203E6AA1CEAD3940040297F1012029515
:10023600AC1AAD1BCFCDCFCECCCE120132EF540FC0
:10024600FEC3940AEE5004243080022437FF1203C2
:04025600A11A80D198
:01025A002281
:04025B008A238B2443
:10025F001203E6AA25EAD394004028EA24FFFDE41E
:10026F0034FFFC7F027E0012029FAC23AD24CFCD62
:10027F00CFCECCCE120132EF54012430FF1203A1A6
:03028F001A80D200
:010292002249
:09046100D2A0D2A1C2A0C2A122C6
:07047300C2A0D2A1D2A02219
:0202F600AD0752
:1002F800E4FB7E007480A803088006CEA2E713CE34
:1003080013D8F8FFEDF582EF558224FF92A0D2A111
:06031800C2A10BBB08DCD2
:01031E0022BC
:1003AB00E4FFD2A0FED2A130A00DA8067480088075
:0D03BB0002C313D8FC4207C2A10EBE08E821
:0103C8002212
:09046A00A20092A0D2A1C2A122BD
:0C043400D2A0D2A1A2A09200C2A1A200FE
:010440002299
:100346008F088C098D0A1204617FA01202F612042E
:1003560034AF081202F6120434AF0A1202F612047F
:0403660034020473E6
:0202C6008F089F
:1002C8001204617FA01202F6120434AF081202F67B
:1002D8001204341204617FA11202F61204341203CC
:0D02E800AB8F09D20012046A120473AF0933
:0102F50022E6
:03000000020441B6
:0C044100787FE4F6D8FD758125020003E9
:1000F300BB010CE58229F582E5833AF583E02250C2
:1001030006E92582F8E622BBFE06E92582F8E2220B
:0D011300E58229F582E5833AF583E4932225
:10012000EF8DF0A4A8F0CF8CF0A428CE8DF0A42EF3
:02013000FE22AD
:10013200BC000BBE0029EF8DF084FFADF022E4CCB1
:10014200F875F008EF2FFFEE33FEEC33FCEE9DEC7A
:10015200984005FCEE9DFE0FD5F0E9E4CEFD22EDC0
:10016200F8F5F0EE8420D21CFEADF075F008EF2F0A
:10017200FFED33FD4007985006D5F0F222C398FDFB
:050182000FD5F0EA2298
:00000001FF
