:10000300000000181800000000003C3C3C3C0000CD
:10001300007E7E7E7E7E7E00FFFFFFFFFFFFFFFFF1
:100023007EBDDBE7E7DBBD7E7EBDC3C3C3C3BD7E51
:100033007E8181818181817E0000000000000000BB
:080043000000000008000000AD
:10004B00E4F509F50A1200FBE4F508E5082509902B
:10005B00000393FD7C00AF081200B80508E508C348
:10006B00940840E7050AE50AD3941240DBE4F50A4D
:10007B0074082509F509D3946040CDE4F50980C8CF
:02008B00AD07BF
:10008D00E4FB7E007480A803088006CEA2E713CEA1
:10009D0013D8F8FFEDF582EF558224FF92B4D2B656
:0A00AD00C2B60BBB08DCD2B5C2B529
:0100B7002226
:1000B800AA07AF0512008BAF02A807748008800258
:1000C800C313D8FCF4F5807F017E001200DA758036
:0200D800FF2205
:0500FB00C2B5C2B622EF
:1000DA00EF1FAC0670011E4C600A7D027CEFDCFE4D
:0400EA00DDFC80ECCD
:0100EE0022EF
:030000000200EF0C
:0C00EF00787FE4F6D8FD75810A02004B12
:00000001FF
