:10015D00E4FDFC7F0112008F1200FC8F12E512608E
:10016D00F7E4F513F514C3E5149408E51394005062
:10017D00E7AF14E512FD7C0012008F0514E5147035
:05018D00E5051380E10F
:1001A900EF1FAC0670011E4C600A7D027CEFDCFE7D
:0401B900DDFC80ECFD
:0101BD00221F
:1000FC00E4F51520B1137F14FE1201A930B1FD7F78
:10010C00147E001201A975150120B0147F147E0015
:10011C001201A930B0FD7F147E001201A9751502E1
:10012C0020B2147F147E001201A930B2FD7F147E20
:10013C00001201A975150320B3147F147E0012015F
:10014C00A930B3FD7F147E001201A9751504AF15FB
:01015C002280
:0C01BE000A083F065B4F666D7D077F6FEF
:10008F00EF14B4080050549000A475F003A4C58376
:10009F0025F0C583730200BC0200C00200C4020039
:1000AF00C80200CC0200D40200DC0200E4D2A4801B
:1000BF000ED2A48012D2A48016D2A4801AC2A4D2C7
:1000CF00A3D2A28016C2A4D2A3C2A2800EC2A4C27F
:1000DF00A3D2A28006C2A4C2A3C2A274082DF8E6BE
:0D00EF00F5807F017E001201A9E4F580225A
:100192005389F0438901C28DD28C758CFC758A1803
:0701A200D2A9D2AFC2B922BD
:03000000020003F8
:0C000300787FE4F6D8FD75811502004AF4
:10000F0002015DE493A3F8E493A34003F68001F2A9
:10001F0008DFF48029E493A3F85407240CC8C333F2
:10002F00C4540F4420C8834004F456800146F6DFC1
:10003F00E4800B01020408102040809001BEE47E92
:10004F00019360BCA3FF543F30E509541FFEE493B6
:10005F00A360010ECF54C025E060A840B8E493A37D
:10006F00FAE493A3F8E493A3C8C582C8CAC583CAA8
:10007F00F0A3C8C582C8CAC583CADFE9DEE780BE60
:0101CA000034
:00000001FF
