:03000300010800F1
:0D00EF007FA77EAB7D10DDFEDEFADFF600A0
:0100FC0022E1
:1000DC00758900438901758CFF758AA4D2A9D28CCD
:0300EC00D2AF226E
:03000B0002009A56
:10009A00C0E0C0D0C28C758CFF758AA4E508D395E0
:1000AA00095004D2808002C2800508E508C394C8BA
:0C00BA004003750800D28CD0D0D0E0329A
:1000C6001200DC750905E4F5081200EF75090AF55A
:0600D600081200EF80EDAE
:0300000002000EED
:0C000E00787FE4F6D8FD758109020055EA
:10001A000200C6E493A3F8E493A34003F68001F236
:10002A0008DFF48029E493A3F85407240CC8C333E7
:10003A00C4540F4420C8834004F456800146F6DFB6
:10004A00E4800B0102040810204080900003E47E43
:10005A00019360BCA3FF543F30E509541FFEE493AB
:10006A00A360010ECF54C025E060A840B8E493A372
:10007A00FAE493A3F8E493A3C8C582C8CAC583CA9D
:10008A00F0A3C8C582C8CAC583CADFE9DEE780BE55
:0100060000F9
:00000001FF
