:0A00A7001200847FFA12001A80FE96
:03002300020026B2
:10002600C0E0C0F0C083C082C0D075D000C000C0A0
:1000360001C002C003C004C005C006C00730980C4A
:10004600E599F4F5A0AF9912001AC298D007D00628
:10005600D005D004D003D002D001D000D0D0D082B9
:07006600D083D0F0D0E0329E
:1000030075984043878053890F438920758BF37517
:070013008DF3C2ABD28E2277
:10006D0043878075985053890F438920758BF3759D
:07007D008DF3C2ABD28E220D
:1000840043878075985053890F438920758BCC75AD
:070094008DCCC2ABD28E221D
:08001A008F993099FDC2992273
:0300000002009B60
:0C009B00787FE4F6D8FD7581070200A70D
:00000001FF
