:100A0700543A202020202020202020204F563A0032
:0D0A1700544C3A20202020202054483A0062
:10063400120AAA120B027BFF7A0A79077D017F0155
:100644001209867BFF7A0A79177D017F02120986D7
:10065400120B37E4FF1208928F1F7F011208928F4A
:100664001ED3E51F648094FD5016C3E51E64809478
:1006740049400DD3E51E6480F8E51F648098500658
:10068400751F23751E1C120B377FF47E01120AEDB1
:100694001208C28F1D8E1C8D1B8C1A750C01750DD2
:0F06A40000750E0312059C12046D1209A980D770
:03000B00020723C6
:10072300C0E0C0F0C083C082C0D075D000C000C09C
:0D07330001C002C003C004C005C006C0071D
:10074000758CD4758ACD0519E51970020518D394F6
:1007500014E518940040097518007519001207EE89
:10076000D007D006D005D004D003D002D001D000ED
:0B077000D0D0D082D083D0F0D0E03297
:10059C008F0B8E0A8D098C08E4FFFEFDFCAB0BAAB9
:1005AC000AA909A8081201B45019AF0BAE0AAD097B
:1005BC00AC0812022D8F0B8E0A8D098C08AD0E7BA8
:1005CC002D8004AD0E7B2BAF0C120B67E50E04FDDA
:1005DC00C005AF0BAE0AAD09AC0812027CAB07AA82
:1005EC0006751303D005AF0C120A24E50E2404FD86
:1005FC007B2EAF0C120B67E50E2405FDC0057F00AA
:10060C007E407D1C7C46AB0BAA0AA909A8081200E7
:10061C000E12027CE47B107A27F9F81203CD7513C5
:08062C0003D005AF0C020A2403
:1009A900E51EFB3395E0FA750C037D047F021207FF
:1009B9007BE51FFB3395E0FA750C037D0D7F020281
:0209C900077BAA
:10046D00E4FF120B89EFD39400500302059BBF01EB
:10047D001E051ED3E51E648094FD4003751E7DD3BD
:10048D00E51F6480F8E51E6480984003851F1EBF3C
:10049D00021E151EC3E51E648094495003751EC9C6
:1004AD00D3E51F6480F8E51E6480984003851F1E08
:1004BD00BF031E051FD3E51F648094FD4003751F08
:1004CD007DC3E51E6480F8E51F6480985003851E8A
:1004DD001FBF041E151FC3E51F648094495003758B
:1004ED001FC9C3E51E6480F8E51F6480985003851D
:1004FD001E1F7F647E0012093EE51FFD3395E0FC53
:10050D00E4FF1209627F057E00120AEDE51EFD3340
:10051D0095E0FC7F011209627F057E00120AEDACA9
:10052D001FEC120248AB1DAA1CA91BA81A1201B47C
:10053D00600B40097B487D107F01120B67AC1EECF0
:10054D00120248AB1DAA1CA91BA81A1201B450090E
:10055D007B4C7D107F01120B67AC1FEC120248AB78
:10056D001DAA1CA91BA81A1201B45022AC1EEC1214
:10057D000248AB1DAA1CA91BA81A1201B4600F409A
:0E058D000D7B007A0079207D107F0112098617
:01059B00223D
:1006B300AC1FEC120248AB1DAA1CA91BA81A1201FD
:1006C300B4600B40097B487D107F01120B67AC1EA1
:1006D300EC120248AB1DAA1CA91BA81A1201B450A4
:1006E300097B4C7D107F01120B67AC1FEC12024893
:1006F300AB1DAA1CA91BA81A1201B45022AC1EECF4
:10070300120248AB1DAA1CA91BA81A1201B4600F40
:10071300400D7B007A0079207D107F01120986222B
:100916008E2E8F2FE4F530F531C3E531952FE53076
:10092600952E5013B2A57F017E00120AED0531E522
:080936003170E6053080E22279
:10093E008E088F09E4F530F531C3E5319509E530C0
:10094E009508500FB2A5120B830531E53170EA05FB
:04095E003080E622DD
:050B8300007FE3DFFE2E
:010B8800224A
:100AED00EF1FAC0670011E4C600A7D027CEFDCFE30
:040AFD00DDFC80ECB0
:010B010022D1
:0D0B3700120A5E7FCC120A797F44020A790F
:1008C200120A5E7FCC120A797FBE120A79120A419D
:1008D2008F08120A41EFFEE508FFFDAC06EC12029A
:0B08E20043E4FBFA7980784102011723
:060B2800C2A58F80D2A7D8
:080B2E007F027EEFDEFEDFFC1A
:010B3600229C
:0A0B5D00C2A6120B28C2A7020B2E3D
:1009CB00CFCDCFCECCCE12033C7C007D0A12033CA4
:0409DB00ED2430FFD8
:0A09DF00D2A6120B28C2A7020B2EAD
:100AC100AE07BE0104ED148006BE0209ED243F44C9
:060AD10080FF120B5D2204
:100B02007F38120B5D7F0C120B5D7F06120B5D7F2F
:040B120001020B5D74
:0A0B6700AC03120AC1AF040209DF5B
:060986008B088A09890AB2
:10098C00120AC1E4FDAB08AA09A90A8D827583007D
:0C099C001202FDFF60061209DF0D80E969
:0109A800222C
:0C085F007F0AEA24FFFDE434FFFC7E0069
:08086B008E148F158C168D17F9
:100873007F017E00E4FBEBC39517E5166480F874F3
:0E0883008098500AAC14AD1512032A0B80E8C1
:010891002244
:040A24008A118B1296
:100A2800120AC1AA13EAD39400400D12085FAC1150
:080A3800AD121209CB1A80ED8A
:010A40002293
:10077B00120AC1C3EA64809480400B7F2B1209DFFD
:10078B008A0D8B0E800E7F2D1209DFC3E49BF50EB5
:10079B00E49AF50DAA0CEAD39400400D12085FAC55
:0907AB000DAD0E1209CB1A80ED10
:0107B4002222
:0407B5008A238B24E4
:1007B900120AC1AA25EAD3940040297F10120861C0
:1007C900AC23AD24CFCDCFCECCCE12033CEF540F0A
:1007D900FEC3940AEE5004243080022437FF120924
:0407E900DF1A80D1C2
:0107ED0022E9
:040827008A288B2967
:10082B00120AC1AA2AEAD394004028EA24FFFDE465
:10083B0034FFFC7F027E0012086BAC28AD29CFCDB4
:10084B00CFCECCCE12033CEF54012430FF1209DF84
:03085B001A80D22E
:01085E002277
:100A5E00D2B7C2B77FE6DFFED2B7007F1FDFFEA29E
:0A0A6E00B7E433FE7FE6DFFEAF06BB
:010A7800225B
:100B1600C2B77E04DEFEEF24FF92B77E16DEFED25B
:010B2600B717
:010B270022AB
:100A9200C2B77F02DFFED2B77F02DFFEA2B7E43326
:070AA200FE7F16DFFEAF0628
:010AA900222A
:020A7900AD07C7
:100A7B00E4FCA8047401088002C333D8FC5DFF12A8
:060A8B000B160CBC08EC88
:010A91002242
:100A4100E4FDFC120A92EF600DA804740108800213
:0C0A5100C333D8FC42050CBC08E9AF051B
:010A5D002276
:100AAA005389F0438901C28DD28C758CD4758ACD55
:070ABA00D2A9D2AFC2B9229C
:050B8900E4AF2DF52D85
:010B8E002244
:1007EE00852B2C120AD78F2BE52BB40107E52C7025
:1007FE0003752D01E52BB40207E52C7003752D0250
:10080E00E52BB40307E52C7003752D03E52BB4041B
:08081E0007E52C7003752D04A1
:0108260022AF
:100AD700E4FF20B1010F20B0027F0220B2027F03A2
:050AE70020B3027F04B2
:010AEC0022E7
:100962008F088C098D0A120B717FA01208ED120BF1
:1009720044AF081208ED120B44AF0A1208ED120B35
:040982004402000328
:020892008F08CD
:10089400120B717FA01208ED120B44AF081208ED81
:1008A400120B44120B717FA11208ED120B441209B2
:0D08B400E98F09D200120B7A120003AF0980
:0108C1002214
:090B7100D2A0D2A1C2A0C2A122AF
:07000300C2A0D2A1D2A0228D
:0208ED00AD0755
:1008EF00E4FB7E007480A803088006CEA2E713CE37
:1008FF0013D8F8FFEDF582EF558224FF92A0D2A115
:06090F00C2A10BBB08DCD5
:0109150022BF
:1009E900E4FFD2A0FED2A130A00DA8067480088031
:0D09F90002C313D8FC4207C2A10EBE08E8DD
:010A060022CD
:090B7A00A20092A0D2A1C2A122A6
:0C0B4400D2A0D2A1A2A09200C2A1A200E7
:010B50002282
:10000E00EC4D6011E8497017ED33EC3304600DE4EC
:10001E00FCFFFEFD22E933E8330470F80202E81219
:10002E0002B358046009E4CC24815006285009021A
:10003E0002F22840030202EFC0E0EB4A7044B9809E
:10004E0006D0E0FB0202DEEF4E701CBD8008EBFF17
:10005E00EAFEE9FD80EBE98DF0A4FEE5F00200F783
:10006E00E9CDF9EAFEEBFFEF89F0A4FCE5F0CE89CD
:10007E00F0A42EFFE435F0CD89F0A42DFEE435F08A
:10008E008067EF4E7005BD80D780C3EF8BF0A4ACB8
:10009E00F0EE8BF0A42CFCE435F0F8EF8AF0A42CF3
:1000AE00E5F038FCE433CB8DF0A42CFCE5F03BF806
:1000BE00EE8AF0A42CFCE5F038F8E433CF89F0A4F6
:1000CE002CFCE5F038CF3400CE89F0A42FFFE5F0FC
:1000DE003EFEE433C98DF0A42EFEE5F039CD8AF054
:1000EE00A42FFFE5F03EFEE43DFD33D0E0FB5007CC
:1000FE000BBB000F0202F2EC2CFCEF33FFEE33FED3
:06010E00ED33FD0202CA00
:100114000202F2EC5D046005E8590470030202E88F
:100124001202B3580460F6EC4860F2EC7004FDFE71
:10013400FF22C860DB2481C85009C39860025006BE
:100144000202EF9850CAF582E9294B4A7005AB8246
:100154000202DE75F0007C1A7880C3EF9BEE9AED04
:1001640099400DC3EF9BFFEE9AFEED99FDE842F036
:10017400DC23ACF0D0E0FFD0E0FED0E0FDAB822089
:10018400E7101BEB60BAEC2CFCEF33FFEE33FEED13
:1001940033FD0202CAE803F830E705C0F075F00049
:1001A400EF2FFFEE33FEED33FD40B830E7C280AAF7
:1001B40074F8CC6480CCC86480C8F58204604FC3F2
:1001C400EB9FF5F0EA9E42F0E99D42F0E89C45F091
:1001D400603C501DE5825FFFE582D313CB5BCBF41B
:1001E4002B5582FB50280ABA002409B90020088044
:1001F4001DE5825BFBE582D313CF5FCFF4C3132FDE
:100204005582FF50090EBE00050DBD00010CC3EB65
:100214009FF5F0EA9E42F0E99D42F0E89C45F060CB
:0902240007CC4820E701B3EC22ED
:10022D00ED33EC33600A047003BD8004ECB2E7FCDF
:01023D00229E
:10023E0075F020800E75F010800575F0087D007E3B
:10024E00007F003392D530D50312045FEC3340109B
:10025E00EF33FFEE33FEED33FDEC33FCD5F0ED2244
:0E026E00E5F0247EA2D513CC92E7CDCEFF2280
:10027C00EDD2E7CD33EC3392D524814006E4FFFE7A
:10028C00FDFC22FCE4CFCECDCC24E0501174FF80D9
:10029C00EDC3CC13CCCD13CDCE13CECF13CF047076
:0702AC00F030D5DE02045F13
:1002B300E9D2E7C933E833F892D5EDD2E7CD33EC91
:0702C30033FC5002B2D5220A
:1002CA00EC30E7100FBF000C0EBE00080DBD000495
:1002DA000BEB6014A2D5EB13FCED92E7FD2274FF41
:1002EA00FCFDFEFF22E480F8A2D574FF13FC7D809A
:0302FA00E480EFAE
:03000000020B519F
:0C0B5100787FE4F6D8FD7581310206348F
:1002FD00BB010CE58229F582E5833AF583E02250B6
:10030D0006E92582F8E622BBFE06E92582F8E222FF
:0D031D00E58229F582E5833AF583E4932219
:10032A00EF8DF0A4A8F0CF8CF0A428CE8DF0A42EE7
:02033A00FE22A1
:10033C00BC000BBE0029EF8DF084FFADF022E4CCA5
:10034C00F875F008EF2FFFEE33FEEC33FCEE9DEC6E
:10035C00984005FCEE9DFE0FD5F0E9E4CEFD22EDB4
:10036C00F8F5F0EE8420D21CFEADF075F008EF2FFE
:10037C00FFED33FD4007985006D5F0F222C398FDEF
:05038C000FD5F0EA228C
:1003910075F008758200EF2FFFEE33FECD33CDCC23
:1003A10033CCC58233C5829BED9AEC99E5829840A6
:1003B1000CF582EE9BFEED9AFDEC99FC0FD5F0D683
:1003C100E4CEFBE4CDFAE4CCF9A88222B800C1B9AD
:1003D1000059BA002DEC8BF084CFCECDFCE5F0CBEB
:1003E100F97818EF2FFFEE33FEED33FDEC33FCEB24
:1003F10033FB10D703994004EB99FB0FD8E5E4F9DF
:10040100FA227818EF2FFFEE33FEED33FDEC33FCCB
:10041100C933C910D7059BE99A4007EC9BFCE99ABF
:10042100F90FD8E0E4C9FAE4CCFB2275F010EF2F04
:10043100FFEE33FEED33FDCC33CCC833C810D70704
:100441009BEC9AE899400AED9BFDEC9AFCE899F83F
:0E0451000FD5F0DAE4CDFBE4CCFAE4C8F922D2
:0E045F00C3E49FFFE49EFEE49DFDE49CFC22AE
:00000001FF
