:100168001201E71201078F13E513640170230515C7
:10017800531503E5157002F512E515B40103751260
:1001880005E515B40203751228E515B403037512C5
:0D01980064E515FD7C007F0112009A80C611
:03000B000201A54A
:1001A500C0E0C0F0C0D0758AA4758CFF0514E514B5
:1001B50075F0648485F014E514C395125004D2904B
:0B01C5008002C290D0D0D0F0D0E03219
:1001D0005389F0438901C28DD28C758CFC758A18C5
:0701E000D2A9D2AFC2B9227F
:1001FE00EF1FAC0670011E4C600A7D027CEFDCFE28
:04020E00DDFC80ECA7
:0102120022C9
:10010700E4F51620B1137F14FE1201FE30B1FD7F16
:10011700147E001201FE75160120B0147F147E00B4
:100127001201FE30B0FD7F147E001201FE7516022B
:1001370020B2147F147E001201FE30B2FD7F147EC0
:10014700001201FE75160320B3147F147E001201FE
:10015700FE30B3FD7F147E001201FE751604AF1644
:010167002275
:0C0213000A083F065B4F666D7D077F6F99
:10009A00EF14B4080050549000AF75F003A4C58360
:1000AA0025F0C583730200C70200CB0200CF02000D
:1000BA00D30200D70200DF0200E70200EFD2A480D9
:1000CA000ED2A48012D2A48016D2A4801AC2A4D2BC
:1000DA00A3D2A28016C2A4D2A3C2A2800EC2A4C274
:1000EA00A3D2A28006C2A4C2A3C2A274082DF8E6B3
:0D00FA00F5807F017E001201FEE4F58022FA
:1001E7005389F0438901758AA4758CFFC28DD28C1F
:0701F700D2A9D2AFC2B92268
:0300000002000EED
:0C000E00787FE4F6D8FD758116020055DD
:10001A00020168E493A3F8E493A34003F68001F293
:10002A0008DFF48029E493A3F85407240CC8C333E7
:10003A00C4540F4420C8834004F456800146F6DFB6
:10004A00E4800B0102040810204080900213E47E31
:10005A00019360BCA3FF543F30E509541FFEE493AB
:10006A00A360010ECF54C025E060A840B8E493A372
:10007A00FAE493A3F8E493A3C8C582C8CAC583CA9D
:10008A00F0A3C8C582C8CAC583CADFE9DEE780BE55
:01021F0000DE
:00000001FF
